:100000000C941D010C9445010C9445010C94450180
:100010000C9445010C9445010C9445010C94450148
:100020000C9445010C9445010C9445010C94450138
:100030000C9445010C9445010C9445010C94450128
:100040000C94B40E0C9445010C94820E0C945C0E2E
:100050000C9445010C9445010C9445010C94450108
:100060000C94FE0E0C94450107634236B79BD8A74B
:100070001A39685618AEBAAB558C1D3CB7CC5763CD
:10008000BD6DEDFD753EF6177231BF000000803F7B
:1000900008000000BE922449123EABAAAA2ABECD97
:1000A000CCCC4C3E00000080BEABAAAAAA3E000009
:1000B0000000BF000000803F000000000008417801
:1000C000D3BB4387D1133D190E3CC3BD4282AD2B38
:1000D0003E68EC8276BED98FE1A93E4C80EFFFBE30
:1000E00001C4FF7F3F00000000000000000024006A
:1000F00027002A0000000000250028002B00000037
:10010000000023002600290004040404040404045D
:1001100002020202020203030303030301020408B2
:100120001020408001020408102001020408102061
:1001300000000008000201000003040700000000A6
:10014000000000005B4248313735305D2045525297
:100150004F523A20756E646566696E6564206572FB
:10016000726F72005B4248313735305D2045525224
:100170004F523A206F74686572206572726F720018
:100180005B4248313735305D204552524F523A205C
:100190007265636569766564204E41434B206F6EDE
:1001A000207472616E736D6974206F66206461746F
:1001B00061005B4248313735305D204552524F5225
:1001C0003A207265636569766564204E41434B2031
:1001D0006F6E207472616E736D6974206F6620613A
:1001E000646472657373005B4248313735305D205B
:1001F0004552524F523A20746F6F206C6F6E6720D9
:10020000666F72207472616E736D697420627566B8
:10021000666572005B4248313735305D2044657653
:10022000696365206973206E6F7420636F6E666901
:1002300067757265642100001D1011241FBECFEF89
:10024000D8E0DEBFCDBF12E0A0E0B1E0EEE3F9E31D
:1002500002C005900D92AE34B107D9F724E0AEE4A8
:10026000B2E001C01D92A432B207E1F711E0CDE186
:10027000D1E004C02197FE010E94971CCC31D10728
:10028000C9F70E94A5100C949D1C0C9400008CBD15
:100290009DBD089508950895AF92BF92CF92DF92C9
:1002A000EF92FF920F931F93CF93DF936C017B012B
:1002B0008B01040F151FEB015E01AE18BF08C017BC
:1002C000D10759F06991D601ED91FC910190F0812F
:1002D000E02DC6010995892B79F7C501DF91CF91F2
:1002E0001F910F91FF90EF90DF90CF90BF90AF9054
:1002F0000895FC01538D448D252F30E0842F90E02C
:10030000821B930B541710F0CF9608950197089510
:10031000FC01918D828D981761F0A28DAE0FBF2FD9
:10032000B11D5D968C91928D9F5F9F73928F90E02F
:1003300008958FEF9FEF0895FC01918D828D98179E
:1003400031F0828DE80FF11D858D90E008958FEFDB
:100350009FEF0895FC01918D228D892F90E0805CA4
:100360009F4F821B91098F739927089586E293E02E
:100370000E94AA0121E0892B09F420E0822F089530
:1003800080E090E0892B29F00E94B60181110C9445
:1003900000000895FC01A48DA80FB92FB11DA35A28
:1003A000BF4F2C91848D90E001968F739927848F95
:1003B000A689B7892C93A089B1898C9183708064B8
:1003C0008C93938D848D981306C00288F389E02D59
:1003D00080818F7D80830895EF92FF920F931F930A
:1003E000CF93DF93EC0181E0888F9B8D8C8D9813E8
:1003F0001AC0E889F989808185FF15C09FB7F894F4
:10040000EE89FF896083E889F9898081837080643F
:1004100080839FBF81E090E0DF91CF911F910F918A
:10042000FF90EF900895F62E0B8D10E00F5F1F4F99
:100430000F731127E02E8C8D8E110CC00FB607FCA8
:10044000FACFE889F989808185FFF5CFCE010E9436
:10045000CA01F1CFEB8DEC0FFD2FF11DE35AFF4FD9
:10046000F0829FB7F8940B8FEA89FB8980818062C4
:10047000CFCFCF93DF93EC01888D8823B9F0AA8981
:10048000BB89E889F9898C9185FD03C0808186FD4F
:100490000DC00FB607FCF7CF8C9185FFF2CF80819E
:1004A00085FFEDCFCE010E94CA01E9CFDF91CF9148
:1004B0000895833081F028F4813099F08230A9F0DA
:1004C00008958730A9F08830C9F08430B1F4809164
:1004D00080008F7D03C0809180008F7780938000A3
:1004E000089584B58F7784BD089584B58F7DFBCF43
:1004F0008091B0008F778093B00008958091B00014
:100500008F7DF9CFCF93DF93282F30E0F901E05DA5
:10051000FE4F8491F901E45EFE4FD491F901E85F4A
:10052000FE4FC491CC23A1F081110E945902EC2FFF
:10053000F0E0EE0FFF1FE250FF4FA591B491EC9158
:10054000ED2381E090E009F480E0DF91CF91089500
:1005500080E090E0FACF1F93CF93DF93282F30E015
:10056000F901E05DFE4F8491F901E45EFE4FD49104
:10057000F901E85FFE4FC491CC23A9F0162F811139
:100580000E945902EC2FF0E0EE0FFF1FEC50FF4FDE
:10059000A591B4918FB7F894EC91111108C0D09542
:1005A000DE23DC938FBFDF91CF911F910895DE2B67
:1005B000F8CFCF93DF9390E0FC01E45EFE4F2491EF
:1005C000885F9E4FFC0184918823D1F090E0880FD2
:1005D000991FFC01E651FF4FA591B491FC01EC502D
:1005E000FF4FC591D49161110EC09FB7F8948C91C3
:1005F000E22FE0958E238C932881E223E8839FBF2E
:10060000DF91CF9108958FB7F894EC91E22BEC93A2
:100610008FBFF6CF3FB7F8948091B4029091B502A6
:10062000A091B602B091B70226B5A89B05C02F3F96
:1006300019F00196A11DB11D3FBFBA2FA92F982F08
:100640008827BC01CD01620F711D811D911D43E002
:10065000660F771F881F991F4A95D1F708958F92CB
:100660009F92AF92BF92CF92DF92EF92FF926B0177
:100670007C010E940A034B015C01C114D104E10416
:10068000F104B9F00E940A03681979098A099B09E3
:10069000683E73408105910580F321E0C21AD108BC
:1006A000E108F10888EE880E83E0981EA11CB11CB9
:1006B000E4CFFF90EF90DF90CF90BF90AF909F90EE
:1006C0008F9008950F931F93FC018FB7F8940091BA
:1006D000C3031091C4032091C5033091C6038FBF9B
:1006E00081819281A381B481458156816781708522
:1006F000081B190B2A0B3B0B041715072607370796
:1007000000F1411551056105710519F02081222381
:1007100099F02FB7F8948091C3039091C403A091EE
:10072000C503B091C6032FBF81839283A383B48393
:1007300081E01F910F910895840F951FA61FB71F89
:10074000F3CF80E0F6CFCF93CFB7F8948091B20289
:10075000811127C0E2E1F1E08491E6E2F1E09491B9
:10076000E82FF0E0EE0FFF1FE651FF4FA591B49187
:10077000EC91E92321F461E08AE00E94AB0261E0A0
:100780008AE00E94D9028CB580618CBD8CB58064F2
:100790008CBD61E08DE00E94D90261E08BE00E9497
:1007A000D9028091B2028F5F8093B202CFBFCF9106
:1007B000089520918F02260F3327331F21323105F0
:1007C000ECF420911C03FC0190E080E0243069F0FF
:1007D00082E00895A0918F022191AC0141595D4FB3
:1007E000A40FB52FB11D2C930196861798F3809115
:1007F0008F02680F60938F0280E0089581E0089572
:1008000010921C0381E08093FB021092F60261E0DB
:1008100082E10E94AB0261E083E10E94AB02E9EB5E
:10082000F0E080818E7F808380818D7F808380E275
:100830008093B80085E48093BC000895CF93DF9344
:1008400091E090936E028823B9F0C091B800D091E6
:10085000BA008091BC008A7B8093BC0060E082E19A
:100860000E94AB0260E083E10E94AB020E940004A0
:10087000D093BA00C093B800DF91CF910895CF9282
:10088000DF92EF92FF920F931F93CF93DF93D82FB6
:10089000C62F613208F098C00E940A036B017C01E8
:1008A00080911C0381116BC081E080931C038093B5
:1008B000FB029FEF9093FA021092F9029C0F909323
:1008C000F8028093F7028091F702DD0FD82BD093C6
:1008D000F7028091F602813009F078C01092F6029A
:1008E0000E940A036B017C018091F7028093BB0098
:1008F00080911E0390911F03A0912003B0912103CA
:10090000892B8A2B8B2BA1F00E940A0300911E03D6
:1009100010911F0320912003309121036C197D0950
:100920008E099F09061717072807390708F448C0DA
:100930008091BC0083FDD8CF85EC8093BC000E94E1
:100940000A036B017C0180911C03813009F440C0D3
:100950008091F9028C1710F4C091F902E6EDF2E0F3
:10096000ACEFB2E080E08C1355C08C2FDF91CF91BB
:100970001F910F91FF90EF90DF90CF90089580919D
:100980001E0390911F03A0912003B0912103892B96
:100990008A2B8B2B09F484CF0E940A0300911E033B
:1009A00010911F0320912003309121036C197D09C0
:1009B0008E099F09061717072807390708F070CF17
:1009C00080911D030E941E04C0E0CFCF85EEB5CFFD
:1009D00080911E0390911F03A0912003B0912103E9
:1009E000892B8A2B8B2B09F4AECF0E940A0300912E
:1009F0001E0310911F0320912003309121036C19D5
:100A00007D098E099F09061717072807390708F07F
:100A10009ACFD6CF91919D938F5FA5CF0895E09106
:100A2000D5028091D402E81730F4F0E0E450FD4F95
:100A3000808190E008958FEF9FEF08959091D50207
:100A40008091D4022FEF3FEF981748F4E92FF0E0A0
:100A5000E450FD4F208130E09F5F9093D502C901A3
:100A600008958091D4029091D502891B990B089525
:100A7000CF92DF92EF92FF920F931F93CF93DF936A
:100A80007C01CB018A0120912503222389F0EB010F
:100A90006B01C40ED51ECC15DD0569F06991D70137
:100AA000ED91FC910190F081E02DC7010995F3CF04
:100AB000642F0E94D903C801DF91CF911F910F913C
:100AC000FF90EF90DF90CF900895CF93DF931F9228
:100AD000CDB7DEB76983209125032223F9F0209159
:100AE0002203203258F021E030E0FC0133832283DE
:100AF00090E080E00F90DF91CF91089580912303E3
:100B0000E82FF0E0E25BFD4F998190838F5F809347
:100B100023038093220381E090E0ECCF61E0CE01DB
:100B200001960E94D903F7CFCF92DF92EF92FF9206
:100B30000F931F93CF93DF93D091220381E0D132A3
:100B400008F09CC0C09124030E940A036B017C0141
:100B500080911C0381116CC082E080931C0381E0B2
:100B60008093FB028FEF8093FA021092F902D093E8
:100B7000F802AEE4B2E0E6EDF2E080E0D8138DC01A
:100B80001092F7028091F702CC0FC82BC093F702A6
:100B90008091F602813009F084C01092F6020E9422
:100BA0000A036B017C018091F7028093BB00809166
:100BB0001E0390911F03A0912003B0912103892B64
:100BC0008A2B8B2BA1F00E940A0300911E03109127
:100BD0001F0320912003309121036C197D098E0998
:100BE0009F09061717072807390708F442C08091A4
:100BF000BC0083FDD8CF85EC8093BC000E940A0323
:100C00006B017C0180911C03823009F44CC08091FF
:100C1000FA028F3F09F469C08091FA02803209F428
:100C200066C08091FA02803309F463C084E026C074
:100C300080911E0390911F03A0912003B091210386
:100C4000892B8A2B8B2B09F483CF0E940A030091F6
:100C50001E0310911F0320912003309121036C1972
:100C60007D098E099F09061717072807390708F01D
:100C70006FCF80911D030E941E0485E01092230314
:100C80001092220310922503DF91CF911F910F91B3
:100C9000FF90EF90DF90CF9008959D9191938F5F9B
:100CA0006DCF85EEA9CF80911E0390911F03A09177
:100CB0002003B0912103892B8A2B8B2B09F4A2CF1F
:100CC0000E940A0300911E0310911F03209120032C
:100CD000309121036C197D098E099F0906171707AA
:100CE0002807390708F08ECFC4CF80E0C7CF82E055
:100CF000C5CF83E0C3CF90E080E0089508958EBD16
:100D000000000DB407FEFDCF8EB50895EF92FF925F
:100D10000F931F93CF93DF939091F5039F3F41F47F
:100D2000DF91CF911F910F91FF90EF900C947F0670
:100D3000D82FC0E007E010E0EE24E394F12CCC0FB4
:100D400060E08091F5030E94AB02B701002E01C064
:100D5000660F0A94EAF76D238091F3030E94AB02B9
:100D600061E08091F5030E94AB028091F4030E9440
:100D70008202892B09F0C1600150110900F78C2F04
:100D8000DF91CF911F910F91FF90EF900895CF9336
:100D9000DF93D82FC62F8091F2038F3F59F58091B2
:100DA000E5039091E6032091E90331E030932503B8
:100DB000209324031092230310922203DC01ED916F
:100DC000FC910190F081E02D6D2F09958091E50354
:100DD0009091E603DC01ED91FC910190F081E02D12
:100DE0006C2F09958091E5039091E603DF91CF91F7
:100DF0000C9494058091F5038F3F21F481E590E0F8
:100E00000E94470160E08091F2030E94AB028D2FA7
:100E10008F770E9486068C2F0E94860661E0809163
:100E2000F203DF91CF910C94AB024F925F926F92DD
:100E30007F92BF92CF92DF92EF92FF920F931F9318
:100E4000CF93DF93B82E28013901CA01DB01841545
:100E50009505A605B70514F4D901C801B701A60187
:100E60008C159D05AE05BF0514F4AC01BD019A01BA
:100E7000AB012419350946095709C418D508E608F5
:100E8000F70881E4ACE3BFE0B81611F0A6E4BFE0D8
:100E90000E947C16A70196010E945D16D22FC32FD7
:100EA000CF7081E4B81220C0C06381E591E00E9458
:100EB000470160E08AE00E94AB028C2F0E947F060F
:100EC0008D2F0E947F0661E08AE0DF91CF911F9114
:100ED0000F91FF90EF90DF90CF90BF907F906F9039
:100EE0005F904F900C94AB02C06BDFCFCF93C0EA02
:100EF000813409F4C0E281E591E00E94470160E09D
:100F00008AE00E94AB028C2F0E947F0680E00E9444
:100F10007F0661E08AE0CF910C94AB02FC01019066
:100F20000020E9F73197AF01481B590BBC0186E25D
:100F300093E00C944C018F929F92AF92BF920F93CB
:100F40001F93CF93DF93CDB7DEB7A1970FB6F89479
:100F5000DEBF0FBECDBF19A2423008F44AE08E01B9
:100F60000F5D1F4F842E912CB12CA12CA501940153
:100F70000E948F16E62FB901CA01EA30F4F4E05D51
:100F8000D801EE938D01232B242B252B79F790E0AC
:100F900080E0109719F0CD010E948E07A1960FB640
:100FA000F894DEBF0FBECDBFDF91CF911F910F919F
:100FB000BF90AF909F908F900895E95CE1CFCF9361
:100FC000DF930E948E07EC0182E391E00E948E077E
:100FD0008C0F9D1FDF91CF9108950F931F93CF9397
:100FE000DF938C01D0E0C0E0F801EC0FFD1F6491AD
:100FF000662341F086E293E00E94EC01892B11F018
:101000002196F2CF82E391E00E948E078C0F9D1F04
:10101000DF91CF911F910F9108954F925F926F9240
:101020007F928F929F92AF92BF92CF92DF92EF9278
:10103000FF920F931F93CF936B017C01742EAC0131
:101040009B010E94A219882399F085E391E0CF913A
:101050001F910F91FF90EF90DF90CF90BF90AF90D6
:101060009F908F907F906F905F904F900C948E0721
:1010700046015701E894B7F82FEF3FEF4FE75FE7DE
:10108000C501B4010E94A21981110DC02FEF3FEFDD
:101090004FE75FE7C501B4010E942D1718161CF435
:1010A00089E391E0D4CF2FEF3FEF4FE75FE4C70133
:1010B000B6010E94E01818161CF48DE391E0C7CF2A
:1010C0002FEF3FEF4FE75FECC701B6010E942D17EE
:1010D00087FDF3CF20E030E0A901C701B6010E94EF
:1010E0002D1710E000E087FF0AC06DE286E293E072
:1010F0000E94EC018C01F7FAF094F7F8F094C0E04C
:1011000060E070E080E09FE37C1641F020E030E09A
:1011100040E251E40E943217CF5FF6CFA70196015B
:101120000E94C1162B013C010E94AB174B015C01D0
:101130004AE00E949B077C01E00EF11ECC23C1F126
:10114000C501B4010E94E0179B01AC01C301B201CB
:101150000E94C0164B015C016EE286E293E00E94A1
:10116000EC01E80EF91EC15018F120E030E040E239
:1011700051E4C501B4010E94E5182B013C010E9415
:10118000AB174B01B12CA12C4AE0C501B4010E9460
:101190009B07E80EF91EC501B4010E94E0179B01F0
:1011A000AC01C301B2010E94C0164B015C01DBCF50
:1011B000C701CF911F910F91FF90EF90DF90CF90DB
:1011C000BF90AF909F908F907F906F905F904F9067
:1011D00008958F929F92AF92BF92CF92DF92EF923B
:1011E000FF92F82E8091F2038F3F09F070C080913A
:1011F000E5039091E6032091E90331E03093250364
:10120000209324031092230310922203DC01ED911A
:10121000FC910190F081E02D6F2D09958091E503FF
:101220009091E6030E94940563E08091E9030E9497
:101230003F041092D5028093D4028091E5039091EF
:10124000E603DC01ED91FC910284F385E02D099524
:101250004C01990FAA08BB08BA2CA92C982C8824F9
:101260008091E5039091E603DC01ED91FC9102840D
:10127000F385E02D0995092E000CAA0BBB0B882ADB
:10128000992AAA2ABB2ABA2CA92C982C88248091A6
:10129000E5039091E603DC01ED91FC910284F38576
:1012A000E02D0995092E000CAA0BBB0B6C017D01EA
:1012B000C828D928EA28FB28C701B601FF90EF907B
:1012C000DF90CF90BF90AF909F908F9008958091C6
:1012D000F5038F3F21F481E590E00E94470160E033
:1012E0008091F2030E94AB028F2D0E94860680E05F
:1012F0000E94860690E0B0E0A0E0CC24D82EE92E33
:10130000FA2E80E00E948606C82AFE2CED2CDC2CEA
:10131000CC2480E00E948606C82A61E08091F20316
:101320000E94AB02C9CF8F929F92AF92BF92CF9291
:10133000DF92EF92FF920F931F938AEF0E94E908CA
:101340006115710520E88207910509F47DC00091BF
:10135000F6031091F70330E020E0C72ED82EE92ED7
:10136000FF24E7FCFA94C01AD10AE20AF30A57E014
:1013700095958795779567955A95D1F7000F111F29
:10138000221F331F4B015C01801A910AA20AB30A83
:10139000A5019401A091F803B091F9030E9487166A
:1013A0004B015C01FBE0B594A79497948794FA9560
:1013B000D1F7A7019601C701B6010E94DC1A9B0173
:1013C000AC01ACE05595479537952795AA95D1F78F
:1013D000A091FA03B091FB030E9487169B01AC0118
:1013E000BEE05595479537952795BA95D1F7280DC5
:1013F000391D4A1D5B1D2093EE033093EF0340938C
:10140000F0035093F103A5E0B0E00E947C16605811
:101410007F4F8F4F9F4F672F782F892F992787FDF9
:101420009A950E94E21720E030E048EC52E40E94D6
:1014300032171F910F91FF90EF90DF90CF90BF90E8
:10144000AF909F908F90089560E070E080EC9FE7F0
:10145000F0CF2F923F924F925F926F927F928F9236
:101460009F92AF92BF92CF92DF92EF92FF920F9333
:101470001F93CF93DF93CDB7DEB768970FB6F8947D
:10148000DEBF0FBECDBF0E94930987EF0E94E9081F
:101490006B877C878D879E876115710580489105D4
:1014A00009F4BDC18091EE039091EF03A091F00388
:1014B000B091F1036C017D01FF0CCC08DC2C7601AE
:1014C0009C01AD016C2D7C2D8C2D9C2D345F4140F9
:1014D0005109610971098109910929833A834B8373
:1014E0005C836D837E83888F9F8B59016A017B01AA
:1014F0008C010E94001B2F83388749875A876B8B8A
:101500007C8B8D8B9E8B3091FF032091FE03932F5C
:10151000990F990B492F592F692F792F892F0E94E5
:10152000001B0CE00E942F1C1901942E852E762E94
:10153000672E582E492E3091010420910004932FDC
:10154000990F990BAF80B884C984DA84EB88FC8842
:101550000D891E89492F592F692F792F892F0E94B4
:10156000001B08E00E94481C5101C92CD82CE72C14
:10157000F62C052D142D0E94651C70588F4F9F4F1F
:101580002090FC033090FD035101C12CD12CE12CA3
:10159000F12C00E010E00E94001B01E20E94481CB8
:1015A000322E232E4F87588B698B472E582E9A8BBD
:1015B000A0E00E94771C09F437C130910704209104
:1015C0000604932F990F990BAF80B884C984DA84ED
:1015D000EB88FC880D891E89492F592F692F792F97
:1015E000892F0E94001B2F8338873A014B0189877E
:1015F0009A873091050420910404932F990F990B39
:10160000A980BA80CB80DC80ED80FE80088D1F89A8
:10161000492F592F692F792F892F0E94001B01E133
:101620000E942F1CAF80B8846301740109851A855C
:101630000E94651C59016A017B018983192F4B8522
:101640005C856D857E8584E0759567955795479592
:101650008A95D1F780E090E0A0E1B0E0841B950B83
:10166000A60BB70B3C014D01990C6608762C430183
:101670009C01AD01662D762D862D962D0FE10E94E1
:101680002F1C49014B835A83B62FA72FF82FE92F20
:101690003091030420910204932F990F990B492F45
:1016A000592F692F792F892F03E20E942F1C09815E
:1016B0000E94651C59016A017B018C0194014B81D8
:1016C0005A816B2F7A2F8F2F9E2F0E946E1CE5E37D
:1016D000AE2EFCE0BF2EC12CD12CE12CF12C00E071
:1016E00010E00E94001BA32CB22CCF84D888E9887C
:1016F000F42C052D1A890E945A1B28873F834983A1
:101700005A836B837C838D839E830DE00E94481CEB
:10171000922E832E742E652E562E472E382E292E6D
:1017200030910D0420910C04932F990F990BA92C43
:10173000B82CC72CD62CE52CF42C032D122D492FB8
:10174000592F692F792F892F0E94001B0E94001B9F
:1017500009E10E94481CA884BF80C980DA80EB8020
:10176000FC800D811E810E94651C19012A013B012C
:101770004C0130910B0420910A04932F990F990B7F
:10178000492F592F692F792F892F0E94001B03E1C0
:101790000E94481C59016A017B018C019101A20140
:1017A000B301C4010E94651C08E00E94481C590155
:1017B0006A017B01E82F192F309109042091080458
:1017C000932F990F990B492F592F692F792F892F13
:1017D00004E00E942F1C0E2F0E94651C0E94DA1745
:1017E00020E030E040E85BE30E94E51868960FB621
:1017F000F894DEBF0FBECDBFDF91CF911F910F9147
:10180000FF90EF90DF90CF90BF90AF909F908F9020
:101810007F906F905F904F903F902F90089560E081
:1018200070E080EC9FE7E2CF60E070E0CB01DECFBC
:10183000CF93C82F8091F2038F3FA9F58091E503E4
:101840009091E6032091E90331E030932503209342
:1018500024031092230310922203DC01ED91FC91EA
:101860000190F081E02D6C2F09958091E503909116
:10187000E6030E94940561E08091E9030E943F0421
:101880001092D5028093D4028091E5039091E603F3
:10189000DC01ED91FC910284F385E02D0995C82FC0
:1018A0008C2FCF9108958091F5038F3F21F481E52E
:1018B00090E00E94470160E08091F2030E94AB0239
:1018C0008C2F0E94860680E00E948606C82F61E069
:1018D0008091F2030E94AB02E3CFCF93DF93C82F36
:1018E0008091F2038F3F09F046C08091E50390910B
:1018F000E6032091E90331E030932503209324038C
:101900001092230310922203DC01ED91FC910190CF
:10191000F081E02D6C2F09958091E5039091E6030D
:101920000E94940562E08091E9030E943F041092B6
:10193000D5028093D4028091E5039091E603DC0107
:10194000ED91FC910284F385E02D0995C82F8091DB
:10195000E5039091E603DC01ED91FC910284F385AF
:10196000E02D099520E03C2FE901C82BD92BCE01B1
:10197000DF91CF9108958091F5038F3F21F481E5A8
:1019800090E00E94470160E08091F2030E94AB0268
:101990008C2F0E94860680E00E948606C82F80E079
:1019A0000E948606DC2FC82F61E08091F2030E941E
:1019B000AB02DDCF0E946D0C9827892798270895E8
:1019C000CF93DF938091F2038F3FF1F51092D50210
:1019D0001092D40210922303109222030E9400045A
:1019E0008AE491E09093D3028093D2028BE491E059
:1019F0009093D1028093D00280ED0E94180C90E069
:101A0000B0E0A0E08093EA039093EB03A093EC0393
:101A1000B093ED0380369105A105B10509F012C11F
:101A200066EB80EE0E94C7066CE271E080E090E019
:101A30000E942F0383EF0E94180C80FF22C064E6EF
:101A400070E080E090E0F4CF61E00E94AB0261E0E2
:101A50008091F2030E94D9028091F5038F3F19F41F
:101A60000E94A303C9CF61E00E94D90261E0809186
:101A7000F3030E94D90260E08091F4030E94D9022E
:101A8000BBCF88E80E94DA0C9093F7038093F603AB
:101A90008AE80E94DA0C9093F9038093F8038CE8AB
:101AA0000E94DA0C9093FB038093FA038EE80E9465
:101AB000DA0C9093FD038093FC0380E90E94DA0C1A
:101AC0009093FF038093FE0382E90E94DA0C9093C7
:101AD00001048093000484E90E94DA0C90930304CB
:101AE0008093020486E90E94DA0C909305048093A7
:101AF000040488E90E94DA0C90930704809306049A
:101B00008AE90E94DA0C90930904809308048CE916
:101B10000E94DA0C90930B0480930A048EE90E94D1
:101B2000DA0C90930D0480930C0481EA0E94180C47
:101B300080930E0481EE0E94DA0C9093100480933F
:101B40000F0483EE0E94180C8093110484EE0E940F
:101B5000180CC82F85EE0E94180C90E1C99F9001C7
:101B600011248F70282B309313042093120486EED7
:101B70000E94180CC82F85EE0E94180C90E1C99F96
:101B8000E001112490E024E0959587952A95E1F7EE
:101B90008C2B9D2B909315048093140487EE0E9448
:101BA000180C809316048DEE80931804809119040C
:101BB0008F71806A8093190480911704807C8093D0
:101BC000170465E082EF0E94C70680911704682F12
:101BD000677090E2699FB0011124282F2695269501
:101BE0002695277094E0299F90011124622B87FB92
:101BF000882780F9682B85EF0E94C706809118041A
:101C0000682F677090E2699FB0011124282F2695F4
:101C100026952695277094E0299F90011124622B28
:101C20008295869586958370682B84EF0E94C706FF
:101C300064E670E080E090E00E942F0381E0DF9195
:101C4000CF91089580E0FBCF85ED8093BC0080911B
:101C50001E0390911F03A0912003B09121030796CA
:101C6000A11DB11D23E0B695A795979587952A9557
:101C7000D1F72091BC0024FD03C010921C030895ED
:101C800040911E0350911F03609120037091210326
:101C9000452B462B472B69F30097A105B10541F071
:101CA0002AE12A95F1F700C00197A109B109E1CF16
:101CB00080911D030C941E041F920F920FB60F9279
:101CC00011242F933F934F935F936F937F938F9341
:101CD0009F93AF93BF93EF93FF9386E293E00E94AD
:101CE000CA01FF91EF91BF91AF919F918F917F9129
:101CF0006F915F914F913F912F910F900FBE0F9079
:101D00001F9018951F920F920FB60F9211242F93C8
:101D10008F939F93EF93FF93E0913603F0913703F6
:101D20008081E0913C03F0913D0382FD1BC09081D6
:101D300080913F038F5F8F7320914003821741F0A2
:101D4000E0913F03F0E0EA5DFC4F958F80933F0305
:101D5000FF91EF919F918F912F910F900FBE0F9058
:101D60001F9018958081F4CF1F920F920FB60F929B
:101D700011242F933F938F939F93AF93BF938091A1
:101D8000C3039091C403A091C503B091C6033091E1
:101D9000B30226E0230F2D3758F50296A11DB11D81
:101DA0002093B3028093C3039093C403A093C5030D
:101DB000B093C6038091B4029091B502A091B6028F
:101DC000B091B7020196A11DB11D8093B40290930A
:101DD000B502A093B602B093B702BF91AF919F91A5
:101DE0008F913F912F910F900FBE0F901F901895DC
:101DF00029E8230F0396A11DB11DD2CF1F920F9288
:101E00000FB60F9211242F933F934F935F936F93CD
:101E10007F938F939F93AF93BF93EF93FF938091A3
:101E2000B900887F803609F44AC0F0F5883209F499
:101E3000A7C018F5803109F49BC0B8F4882309F4D1
:101E4000F9C0883009F494C0FF91EF91BF91AF9130
:101E50009F918F917F916F915F914F913F912F91C2
:101E60000F900FBE0F901F901895883109F488C00D
:101E7000803251F78093FA0214C0803409F49DC077
:101E800040F48033B9F38833F9F68093FA0285EC95
:101E9000B0C0803509F485C0883509F496C088340F
:101EA00099F60E94240ED0CF883909F48CC038F5F9
:101EB000883729F050F4883611F0803729F683E00E
:101EC00080931C031092B10257C0883809F47BC07C
:101ED000803919F0803809F0B7CF8091B102803293
:101EE00008F071C0E091B10281E08E0F8093B102E1
:101EF0008091BB00F0E0EF56FD4F80833DC0803BFA
:101F000039F0E0F4803A09F479C0883A09F09CCFBE
:101F100084E080931C031092900210928F02E09153
:101F2000D202F091D302099580918F0281110FC0E6
:101F300081E080938F0210926F0209C0803C09F407
:101F4000A6CF883C09F4A3CF883B09F07DCFE09170
:101F5000900281E08E0F80939002F0E0E159FD4FF6
:101F600080818093BB009091900280918F0229C064
:101F70008091F7028093BB0085EC8093BC0064CF16
:101F80009091F9028091F802981758F5E091F902C2
:101F900081E08E0F8093F902F0E0EA52FD4F8081DC
:101FA000E9CFE091F90281E08E0F8093F9028091F0
:101FB000BB00F0E0EA52FD4F80839091F9028091DE
:101FC000F8029817C8F285E8D8CFE091F90281E0CD
:101FD0008E0F8093F9028091BB00F0E0EA52FD4F32
:101FE00080838091FB0281115CCF81E08093F602B7
:101FF00084EA8093BC0010921C0326CF85EC80936A
:10200000BC0010921C038091B102803230F4E09148
:10201000B102F0E0EF56FD4F10826091B10270E026
:10202000E091D002F091D10281E992E009951092FD
:10203000B1020ACF1092FA0234CFE6E2F3E0138243
:10204000128248EE53E060E070E04483558366837B
:10205000778382E191E09183808385EC90E095879E
:10206000848784EC90E09787868780EC90E0918B62
:10207000808B81EC90E0938B828B82EC90E0958B4F
:10208000848B86EC90E0978B868B118E128E138E4C
:10209000148EA7ECB3E013961C921E92129714961E
:1020A0004D935D936D937C93179784E291E0119625
:1020B0009C938E93EAE1F4E085E481834AE959E94F
:1020C00069E97FE3428353836483758317821682B1
:1020D00083E28083B187A087E5EEF3E08FEF858709
:1020E00086878787808BECEDF3E021E0208380ED0D
:1020F00097E0A0E0B0E085839683A783B0873FB7E1
:10210000F8944091C3035091C4036091C50370914A
:10211000C6033FBF4183528363837483E3EDF3E0DF
:10212000208385839683A783B0872FB7F894809107
:10213000C3039091C403A091C503B091C6032FBF00
:1021400081839283A383B4830895789484B5826055
:1021500084BD84B5816084BD85B5826085BD85B54B
:10216000816085BD80916E00816080936E001092C9
:102170008100809181008260809381008091810044
:1021800081608093810080918000816080938000D5
:102190008091B10084608093B1008091B000816033
:1021A0008093B00080917A00846080937A0080915F
:1021B0007A00826080937A0080917A008E7F80938B
:1021C0007A0080917A00806880937A001092C10032
:1021D000E0913603F091370382E08083E09132038F
:1021E000F09133031082E0913403F091350387E6D8
:1021F000808310923E03E0913A03F0913B0386E026
:102200008083E0913803F09139038081806180837D
:10221000E0913803F0913903808188608083E091F8
:102220003803F0913903808180688083E09138031E
:10223000F091390380818F7D808381E491E00E9459
:10224000DF071092D5021092D4021092230310924D
:1022500022030E9400048AE491E09093D3028093C9
:10226000D2028BE491E09093D1028093D00223E2DA
:1022700020931A04809122049091230431E030933A
:10228000250320932403DC01ED91FC910190F08162
:10229000E02D60E1099580912204909123040E9431
:1022A0009405C82F6AE070E080E090E00E942F0360
:1022B000C23009F447C048F4CC2391F087EE91E096
:1022C000C13059F084E491E008C080E891E0C33067
:1022D00021F084E691E0C430A9F70E94ED0706C022
:1022E00080E190E0909321048093200487E780931D
:1022F000E90387EC93E09093E6038093E5030E9463
:10230000E00C811122C086E78093E9030E94E00C73
:1023100081111BC08DE591E00E94DF0785EA91E005
:102320000E948E076091EA037091EB038091EC03A9
:102330009091ED0340E10E949B0782E391E00E94AF
:102340008E07FFCF82EB91E0C8CF61E08AE00E9468
:10235000D90261E08AE00E94AB020E94A30381E4FB
:102360000E94760782E40E94760760E082E00E9485
:10237000D90260E083E00E94D90260E084E00E941C
:10238000D90260E085E00E94D90260E086E00E9408
:10239000D90260E087E00E94D90260E088E00E94F4
:1023A000D90261E089E00E94D90288E19EE00FB67F
:1023B000F894A895809360000FBE909360008CED18
:1023C00093E00E946203813009F056C082E00E94CF
:1023D00082024C0190930D0180930C0183E00E94D6
:1023E00082025C0190930B0180930A0184E00E94B9
:1023F00082026C01909309018093080185E00E949C
:1024000082027C01909307018093060186E00E947E
:1024100082028C01909305018093040187E00E9461
:102420008202EC01909303018093020188E00E94F4
:10243000820290930101809300018A94892809F017
:10244000BAC1AA94AB2809F0B6C1CA94CD2809F044
:10245000B2C1EA94EF2809F0AEC10130110509F0CC
:10246000AAC1219709F0A7C18130910509F0A3C144
:102470009093CF028093CE0283ED93E00E9462039B
:10248000813009F00CC46091200470912104611521
:10249000710509F095C184E192E00E94ED0760E0CA
:1024A00070E080E090EC6093CA027093CB0280935E
:1024B000CC029093CD020E9493096093C602709360
:1024C000C7028093C8029093C9020E94290A20E0A3
:1024D00030E048EC52E40E9432176093C2027093DD
:1024E000C3028093C4029093C5020E94290A20E08F
:1024F00030E048EC52E40E94321720E030E54DE72E
:1025000054E40E94321721E03EED42E45EE30E9473
:1025100052199B01AC0160E070E080E89FE30E94EB
:10252000C01620E03AE24DE257E40E94E5186093BD
:10253000BE027093BF028093C0029093C1020E94BA
:1025400093098DEF0E946D0C6C01F12CE12C812C14
:10255000912C40ECA42E4FE7B42EC114B0E8DB065A
:10256000E104F10409F4C9C04090EE035090EF0378
:102570006090F0037090F1032CE2521A21E0620A9D
:1025800071086EE0CC0CDD1CEE1CFF1C6A95D1F7C7
:102590008091120490911304092E000CAA0BBB0B1E
:1025A00074E1880F991FAA1FBB1F7A95D1F7C81A2B
:1025B000D90AEA0AFB0AA0911404B0911504A301F8
:1025C00092010E948716C61AD70AE80AF90A80E41F
:1025D000D80EE11CF11CEFE0F594E794D794C79472
:1025E000EA95D1F7A0911104B0E00E947C164B014E
:1025F0005C01FBE0B594A79497948794FA95D1F782
:1026000090E8990EA11CB11CA09116040A2E000C92
:10261000BB0B0E948716AAE09595879577956795DD
:10262000AA95D1F7A50194010E94DC1A9B01AC0187
:10263000BAE05595479537952795BA95D1F7405EFD
:102640005F4FA0910F04B09110040E948716705E36
:102650008F4F9F4FCEE09595879577956795CA9553
:10266000D1F7A70196010E94DC1A6B017C01DFE023
:102670009595879577956795DA95D1F79B01AC018C
:102680000E94DC1A9B01AC0117E0559547953795E0
:1026900027951A95D1F7A0910E04B0E00E947C1600
:1026A00004E095958795779567950A95D1F7C61AB1
:1026B000D70AE80AF90AF7FE03C0C12CD12C76012B
:1026C000C701B601613071058105A9E19A0724F0BF
:1026D00060E070E080E099E15CE095958795779502
:1026E00067955A95D1F70E94E21720E030E040E864
:1026F0005AE30E94E5184B015C018092BA02909265
:10270000BB02A092BC02B092BD02C091CE02D09199
:10271000CF02C130D10509F004C16091CA027091A5
:10272000CB028091CC029091CD020E94A417AB0104
:10273000BC0128E5C22E22E0D22EE12CF12C00E0D3
:1027400010E0980181E40E9415076091C602709123
:10275000C7028091C8029091C9020E94A417AB01E0
:10276000BC0137E3C32ED12CE12CF12C07EE1FEF77
:102770002FEF3FEF82E40E9415070091B8021091FD
:10278000B90220E030E048EC52E46091CA02709156
:10279000CB028091CC029091CD020E942D1787FD33
:1027A00011C20130110509F017C21092B90210923E
:1027B000B80260E00EC21092CF021092CE025CCE40
:1027C000A0912204B091230490911A0480932503D0
:1027D000909324031092230310922203ED91FC9115
:1027E00011970190F081E02DCD010995809122048F
:1027F000909123040E9494058091200490912104DB
:1028000080329105A8F08232910510F1839781F40E
:1028100080911B0420E1829FC001112465E470E0D7
:102820000E94EC1A072E000C880B990B0E942F03B4
:1028300062E080911A040E943F041092D5028093B6
:10284000D402823061F060E070E080E89FEB2BCE34
:1028500080911B04A8E78A9FC0011124DFCF8091DB
:10286000220490912304DC01ED91FC910284F38514
:10287000E02D0995382E212C80912204909123047B
:10288000DC01ED91FC910284F385E02D099582290C
:102890009329BC0190E080E00E94E0176B017C016D
:1028A00020E030E040E85FEB0E942D17882359F2CA
:1028B00060911B046534A9F070E090E080E00E9414
:1028C000E0179B01AC0160E070E08AE892E40E94AE
:1028D00032179B01AC01C701B6010E94E5186B01DC
:1028E0007C0180912004909121048132910511F0A6
:1028F000419751F420E030E040E05FE3C701B601CA
:102900000E94E5186B017C0120911C0430911D048C
:1029100040911E0450911F04C701B6010E94321756
:10292000C2CD80910C0190910D01C2E0D0E0892BC5
:10293000D1F46091CA027091CB028091CC02909147
:10294000CD020E94A417AB01BC0198E5C92E92E00C
:10295000D92EE12CF12C00E010E0980181E40E94D6
:102960001507C1E0D0E080910A0190910B01892BFD
:10297000E9F46091CA027091CB028091CC029091EF
:10298000CD020E94A417AB01BC0188EBC82E8BE0DE
:10299000D82EE12CF12C00E010E0980182E4C23046
:1029A000D10509F481E40E9415072197809108015F
:1029B00090910901892B01F52097F1F06091CA02ED
:1029C0007091CB028091CC029091CD02C230D105A2
:1029D00009F0ADC00E94A417AB01BC0100E1C02EFC
:1029E00007E2D02EE12CF12C06E010E020E030E0F0
:1029F00081E40E94150721978091060190910701BB
:102A0000892BC1F42097B1F0C501B401C230D105C2
:102A100009F09DC00E94A417AB01BC01B4E6CB2E07
:102A2000D12CE12CF12C00E010E0980181E40E940F
:102A3000150721978091040190910501892B01F5DB
:102A40002097F1F06091C2027091C3028091C4029C
:102A50009091C502C230D10509F087C00E94A41729
:102A6000AB01BC01FCE4CF2EF4E0DF2EE12CF12C15
:102A70000CE211E020E030E081E40E94150721978C
:102A80008091020190910301892BF9F42097E9F0DC
:102A90006091C6027091C7028091C8029091C902EC
:102AA000C230D10509F071C00E94A417AB01BC016E
:102AB00037E3C32ED12CE12CF12C07EE1FEF2FEFC3
:102AC0003FEF81E40E9415072197809100019091CA
:102AD0000101892BE1F42097D1F06091C602709139
:102AE000C7028091C8029091C902229709F05CC088
:102AF0000E94A417AB01BC0192E3C92ED12CE12C9A
:102B0000F12C00E010E0980181E40E94150780910B
:102B1000B8029091B902019709F0C1C01092B902B0
:102B20001092B80260E089E00E94AB02B8C00E9437
:102B3000A417AB01BC0110E1C12E17E2D12EE12C8C
:102B4000F12C06E010E020E030E082E452CF0E9459
:102B5000A417AB01BC01A4E6CA2ED12CE12CF12CA8
:102B600000E010E0980182E462CF0E94A417AB015C
:102B7000BC01ECE4CE2EE4E0DE2EE12CF12C0CE2E4
:102B800011E020E030E082E478CF0E94A417AB018E
:102B9000BC0127E3C22ED12CE12CF12C07EE1FEF54
:102BA0002FEF3FEF82E48ECF0E94A417AB01BC0150
:102BB00082E3C82ED12CE12CF12C00E010E098012A
:102BC00082E4A3CF012B41F4D093B902C093B802A1
:102BD00061E089E00E94AB0286EB91E00E948E07E3
:102BE0006091CA027091CB028091CC029091CD028B
:102BF00042E00E940D088AEC91E00E94DF078FEC12
:102C000091E00E948E076091C6027091C702809188
:102C1000C8029091C90242E00E940D0883EE91E043
:102C20000E94DF0787EE91E00E948E076091C2024A
:102C30007091C3028091C4029091C50242E00E944B
:102C40000D088BEF91E00E94DF0780E092E00E9488
:102C50008E076091BE027091BF028091C002909178
:102C6000C10242E00E940D0884E192E00E94DF0769
:102C700087E192E00E948E076091BA027091BB02D8
:102C80008091BC029091BD0242E00E940D088BE24F
:102C900092E00E94DF078EE292E00E94DF07A89593
:102CA00080E090E0892B09F48ACB0E94B60188234A
:102CB00009F485CB0E94000082CB052E97FB1EF401
:102CC00000940E94741657FD07D00E948F1607FCCF
:102CD00003D04EF40C947416509540953095219580
:102CE0003F4F4F4F5F4F0895909580957095619538
:102CF0007F4F8F4F9F4F08950E94B116A59F900D53
:102D0000B49F900DA49F800D911D11240895B7FFCD
:102D10000C947C160E947C16821B930B0895A1E2F2
:102D20001A2EAA1BBB1BFD010DC0AA1FBB1FEE1F45
:102D3000FF1FA217B307E407F50720F0A21BB30B90
:102D4000E40BF50B661F771F881F991F1A9469F70C
:102D500060957095809590959B01AC01BD01CF0168
:102D60000895A29FB001B39FC001A39F700D811D64
:102D70001124911DB29F700D811D1124911D089584
:102D80005058BB27AA270E94D8160C94A6180E9458
:102D9000981838F00E949F1820F039F49F3F19F4DA
:102DA00026F40C9485180EF4E095E7FB0C947F183C
:102DB000E92F0E94B71858F3BA1762077307840700
:102DC000950720F079F4A6F50C94D9180EF4E09547
:102DD0000B2EBA2FA02D0B01B90190010C01CA01D5
:102DE000A0011124FF27591B99F0593F50F4503E80
:102DF00068F11A16F040A22F232F342F4427585F72
:102E0000F3CF469537952795A795F0405395C9F789
:102E10007EF41F16BA0B620B730B840BBAF0915041
:102E2000A1F0FF0FBB1F661F771F881FC2F70EC0E0
:102E3000BA0F621F731F841F48F4879577956795B3
:102E4000B795F7959E3F08F0B0CF9395880F08F09F
:102E50009927EE0F9795879508950E945B1808F4BF
:102E600081E008950E9446170C94A6180E949F18AE
:102E700058F00E94981840F029F45F3F29F00C9414
:102E80007F1851110C94DA180C9485180E94B71809
:102E900068F39923B1F3552391F3951B550BBB2789
:102EA000AA2762177307840738F09F5F5F4F220FCE
:102EB000331F441FAA1FA9F335D00E2E3AF0E0E8C5
:102EC00032D091505040E695001CCAF72BD0FE2F0F
:102ED00029D0660F771F881FBB1F261737074807A3
:102EE000AB07B0E809F0BB0B802DBF01FF2793585B
:102EF0005F4F3AF09E3F510578F00C947F180C9488
:102F0000DA185F3FE4F3983ED4F38695779567959A
:102F1000B795F7959F5FC9F7880F911D969587958F
:102F200097F90895E1E0660F771F881FBB1F6217AE
:102F300073078407BA0720F0621B730B840BBA0B6C
:102F4000EE1F88F7E09508950E94AB176894B111C1
:102F50000C94DA1808950E94BF1888F09F5798F0D3
:102F6000B92F9927B751B0F0E1F0660F771F881F8E
:102F7000991F1AF0BA95C9F714C0B13091F00E94A8
:102F8000D918B1E008950C94D918672F782F8827A5
:102F9000B85F39F0B93FCCF3869577956795B395CF
:102FA000D9F73EF490958095709561957F4F8F4F3E
:102FB0009F4F089597FB16F40E9488180C941E18D2
:102FC000E89409C097FB3EF49095809570956195C3
:102FD0007F4F8F4F9F4F9923A9F0F92F96E9BB2779
:102FE0009395F695879577956795B795F111F8CFF5
:102FF000FAF4BB0F11F460FF1BC06F5F7F4F8F4F60
:103000009F4F16C0882311F096E911C0772321F055
:103010009EE8872F762F05C0662371F096E8862FED
:1030200070E060E02AF09A95660F771F881FDAF744
:10303000880F9695879597F90895E894F92F96EB60
:10304000FF2381F0121613061406440B9395F69590
:1030500087957795679557954040FF23B9F71BC033
:1030600099270895882351F49850D2F7872B762F0B
:10307000652F542F432F322F20E0B1F31216130681
:103080001406440B88233AF09A95440F551F661F87
:10309000771F881FCAF755234AF4440F551F11F4B0
:1030A00060FF04C06F5F7F4F8F4F9F4F880F9695D3
:1030B000879597F90895990F0008550FAA0BE0E836
:1030C000FEEF16161706E807F907C0F012161306EA
:1030D000E407F50798F0621B730B840B950B39F42A
:1030E0000A2661F0232B242B252B21F408950A2690
:1030F00009F4A140A6958FEF811D811D089597F9D0
:103100009F6780E870E060E008959FEF80EC08958D
:103110009095809570956095509540953095219546
:103120003F4F4F4F5F4F6F4F7F4F8F4F9F4F0895D0
:1031300000240A9416161706180609060895002496
:103140000A9412161306140605060895092E039410
:10315000000C11F4882352F0BB0F40F4BF2B11F484
:1031600060FF04C06F5F7F4F8F4F9F4F089557FDE3
:103170009058440F551F59F05F3F71F04795880FE5
:1031800097FB991F61F09F3F79F08795089512167C
:1031900013061406551FF2CF4695F1DF08C0161628
:1031A00017061806991FF1CF8695710561050894D9
:1031B0000895E894BB2766277727CB0197F90895F0
:1031C0000E945B1808F48FEF08950E94F8180C9481
:1031D000A6180E94981838F00E949F1820F0952396
:1031E00011F00C947F180C94851811240C94DA18A3
:1031F0000E94B71870F3959FC1F3950F50E0551FCB
:10320000629FF001729FBB27F00DB11D639FAA273B
:10321000F00DB11DAA1F649F6627B00DA11D661F8A
:10322000829F2227B00DA11D621F739FB00DA11DAB
:10323000621F839FA00D611D221F749F3327A00D65
:10324000611D231F849F600D211D822F762F6A2F01
:1032500011249F5750409AF0F1F088234AF0EE0F66
:10326000FF1FBB1F661F771F881F91505040A9F793
:103270009E3F510580F00C947F180C94DA185F3F44
:10328000E4F3983ED4F3869577956795B795F795CF
:10329000E7959F5FC1F7FE2B880F911D9695879547
:1032A00097F90895FA01EE0FFF1F309621053105B9
:1032B000A1F16115710561F48038BFE39B0749F105
:1032C00068949038810561F08038BFEF9B0741F02A
:1032D00099234AF5FF3FE1053105210519F1E894ED
:1032E0000894E795D901AA2329F4AB2FBE2FF85FE4
:1032F000D0F310C0FF5F70F4A695E0F7F73950F0F7
:1033000019F0FF3A38F49F779F930DD00F9007FC88
:103310009058089546F00C94851860E070E080E8BD
:103320009FE308954FE79F775F934F933F932F93CA
:103330000E94521A2F913F914F915F910E94E51880
:103340000C94AF190E945B18880B990B089529F40F
:1033500016F00C947F180C94D9180C9485180E94C0
:10336000BF18A8F39638A0F707F80F92E8942BE35C
:103370003AEA48EB5FE70E94FB180F920F920F9218
:103380004DB75EB70F920E949A1AE8E6F0E00E94ED
:10339000E1194F915F91EF91FF91E595EE1FFF1FAE
:1033A00049F0FE57E0684427EE0F441FFA95E1F715
:1033B0004195550B0E94141A0F9007FE0C94081AA1
:1033C0000895DF93CF931F930F93FF92EF92DF92B5
:1033D0007B018C01689406C0DA2EEF010E94F81878
:1033E000FE01E894A5912591359145915591A6F35B
:1033F000EF010E94D816FE019701A801DA9469F73F
:10340000DF90EF90FF900F911F91CF91DF91089582
:103410009B01AC0160E070E080E89FE30C94321700
:103420000C947F180C94CE1A0E94BF18D8F39923DD
:10343000C9F3940F511DA3F39150504094F059F0EB
:10344000882332F0660F771F881F91505040C1F7D4
:103450009E3F51052CF7880F911D9695879597F9FA
:1034600008955F3FACF0983E9CF0BB27869577951A
:103470006795B79508F4B1609395C1F7BB0F58F7FE
:1034800011F460FFE8CF6F5F7F4F8F4F9F4FE3CF07
:103490000C94DA1816F00C94CE1A0C9485186894D3
:1034A0000C947F180E94BF18A8F39923C1F3AEF3C0
:1034B000DF93CF931F930F93FF92C92FDD278823AC
:1034C0002AF02197660F771F881FDAF720E030E097
:1034D00040E85FEB9FE3883920F0803E38F021968A
:1034E0008F770E94C116E0E9F0E004C00E94C11687
:1034F000EDEBF0E00E94E1198B01BE01EC01FB2E27
:103500006F5771097595771F880B990B0E94E21709
:1035100028E132E741E35FE30E94F818AF2D9801FC
:10352000AE01FF900F911F91CF91DF910E94D816AD
:103530000C94A618FA01DC01AA0FBB1F9B01AC0179
:10354000BF5728F4222733274427507820C0B7518B
:1035500090F4AB2F0024469537952795011CA39531
:10356000D2F3002071F0220F331F441FB395DAF31A
:103570000ED00C94C01661307105A0E88A07B946D8
:1035800030F49B01AC016627772788279078309626
:1035900021F0208331834283538308959F3F31F08C
:1035A000915020F4879577956795B795880F911D71
:1035B0009695879597F90895DB018F939F930E94C5
:1035C0007C16BF91AF91A29F800D911DA39F900D7E
:1035D000B29F900D1124089597FB072E16F40094C6
:1035E00007D077FD09D00E94831C07FC05D03EF46C
:1035F000909581959F4F0895709561957F4F08959F
:10360000DF93CF931F930F939A9DF02D219FF00D81
:103610008B9DF00D8A9DE02DF10D039FF00D029F13
:10362000E00DF11D4E9DE00DF11D5E9DF00D4F9DD5
:10363000F00D7F936F93BF92AF925F934F93D5013D
:103640000E94B1168B01AC01D7010E94B116EB01AB
:10365000E80FF91FD6010E944F1B2F913F91D60111
:103660000E94B116C60FD71FE81FF91FAF91BF9177
:103670000E944F1B2F913F910E94B116C60FD71F7A
:10368000E81FF91FD6010E94B116E60FF71F980137
:10369000BE01CF010F911F91CF91DF9108950E943C
:1036A000B116460F571FC81FD91F08F43196089549
:1036B000689401C0E894F92FF12B12F00C948C1B44
:1036C000A0E0B0E0E6E6FBE10C94FE1B092E0594B9
:1036D00022F40E94E81B112392F4F0E80F26FFEF7A
:1036E000E094F09400951095B094C094D094A19477
:1036F000BF0ACF0ADF0AEF0AFF0A0F0B1F0B0E9457
:10370000971B07FC0E94E81BCDB7DEB7ECE00C94DA
:103710001A1C689401C0E8948F929F92CF93DF9314
:103720000E94971BDF91CF919F908F9008958824DE
:103730009924F401E401B0E49F93AA279A158B041D
:103740009C04ED05FE05CF05D007A10798F4AD2F29
:10375000DC2FCF2FFE2FE92D982C892E982F872F25
:10376000762F652F542F432F322F2227B85031F751
:10377000BF9127C01B2EBF91BB27220F331F441FB1
:10378000551F661F771F881F991F881C991CEE1FE5
:10379000FF1FCC1FDD1FAA1FBB1F8A149B04EC0553
:1037A000FD05CE05DF05A007B10748F08A189B0884
:1037B000EC09FD09CE09DF09A00BB10B21601A94B9
:1037C000E1F62EF49401AF01BE01CD01000C089585
:1037D0006095709580959095309540955095219580
:1037E0003F4F4F4F5F4F6F4F7F4F8F4F9F4F08950A
:1037F0002F923F924F925F926F927F928F929F9201
:10380000AF92BF92CF92DF92EF92FF920F931F93EE
:10381000CF93DF93CDB7DEB7CA1BDB0B0FB6F8949F
:10382000DEBF0FBECDBF09942A88398848885F84DF
:103830006E847D848C849B84AA84B984C884DF8050
:10384000EE80FD800C811B81AA81B981CE0FD11D34
:103850000FB6F894DEBF0FBECDBFED010895002E68
:10386000083090F0982F872F762F652F542F432FF5
:10387000322F22270850F4CF220F331F441F551F29
:10388000661F771F881F991F0A95B2F7002D0895AC
:1038900097FD1094002E083098F00850232F342FF5
:1038A000452F562F672F782F892F912DF4CF159400
:1038B0009795879577956795579547953795279568
:1038C0000A95AAF71124002D08952A0D3B1D4C1DC1
:1038D0005D1D6E1D7F1D801F911F08952A193B09D4
:1038E0004C095D096E097F09800B910B0895002436
:1038F000A7FD00942A1730054005500560057005A6
:10390000800590050895AA1BBB1B51E107C0AA1FA3
:10391000BB1FA617B70710F0A61BB70B881F991F70
:103920005A95A9F780959095BC01CD010895EE0FA9
:0E393000FF1F0590F491E02D0994F894FFCF4D
:10393E000100010001000100010001000100000072
:10394E000000EC014C0179013902AA0188019C01A9
:10395E0000000000650538057B060E0531051E05C5
:10396E000F050D0A006E616E00696E66006F766659
:10397E00004C75782026204169722053656E736F56
:10398E0072202846573A312E322E302900436F7559
:10399E006C64206E6F742066696E6420612076619F
:1039AE006C696420424D453238302073656E736FFA
:1039BE00722C20636865636B20776972696E672C61
:1039CE0020616464726573732C2073656E736F72FD
:1039DE00204944210053656E736F7249442077610C
:1039EE00733A203078004C696768742020202020BC
:1039FE00202020202020203D2000204C75780054CF
:103A0E00656D7065726174757265202020202020AE
:103A1E003D2000202A430050726573737572652035
:103A2E0020202020202020203D20002068506100F2
:103A3E00417070726F782E20416C74697475646574
:103A4E00203D2000206D0048756D696469747920F1
:103A5E0020202020202020203D20002025002D2D5C
:103A6E002D2D2D2D2D2D2D2D2D2D2D2D2D2D2D2D78
:0E3A7E002D2D2D2D2D2D2D2D2D2D2D2D00001E
:00000001FF
